:020000040800F2
:1000000000A00020717600086D7600086B7600086D
:100010006B7600086B7600086B7600080000000025
:100020000000000000000000000000006D760008E5
:100030006D760008000000006D7600081D2B00089A
:100040006B7600086B7600086B7600086B7600080C
:100050006B7600086B7600086B7600086B760008FC
:100060006B7600086B7600086B7600086B760008EC
:100070006B7600086B7600086B7600086B760008DC
:100080006B7600086B7600086B7600086B760008CC
:100090006B7600086B7600086B7600086B760008BC
:1000A0006B7600086B7600086B7600086B760008AC
:1000B0006B7600086B7600086B7600086B7600089C
:1000C0006B7600086B7600086B7600086B7600088C
:1000D0006B7600086B7600086B7600086B7600087C
:1000E0006B7600086B7600086B7600086B7600086C
:1000F0006B7600086B7600086B7600086B7600085C
:100100006B7600086B7600086B7600086B7600084B
:100110006B7600086B7600086B7600086B7600083B
:100120006B7600086B7600086B7600086B7600082B
:100130006B7600086B7600086B7600086B7600081B
:100140006B7600086B7600086B7600086B7600080B
:100150006B7600086B7600086B7600086B760008FB
:100160006B7600086B7600086B7600086B760008EB
:100170006B7600086B7600086B7600086B760008DB
:100180006B76000880B5ADF5945D86B0002000AFB9
:1001900002F048FC4548DFF8249102F0A1FC07F684
:1001A000381107F5936000F0AFFB414802F098FC6E
:1001B00007F5936207F1380107F1580000F0D8FB0A
:1001C00007F1380303F11F0CB9E80F0007F1180E0F
:1001D000AEE80F006E46D9F800308EF8003092B0CD
:1001E000E84607F137050DF1010415F8013F07F165
:1001F00018011A0903F00F038A5CCB5C04F8012C88
:10020000654504F8023BF0D1002388F840302948C6
:10021000DFF8AC9002F064FC404602F061FC264836
:10022000DFF8A08002F05CFC97F89734DB43B5461A
:1002300087F897343C1D484602F052FC07F6381206
:1002400007F1580107F1180000F0C8FBDFF86CC097
:10025000BCE80F00A646AEE80F006E46DCF80030A2
:100260008EF8003092B06D4607F117010DF10102D2
:1002700007F1370C11F8013F180903F00F03205C58
:10028000E35C02F8010C8C4502F8023BF2D100233A
:1002900085F84030404602F023FC284602F020FC5E
:1002A000054802F01DFCB546C5E700BF7877000899
:1002B000807700089077000898770008AC770008EE
:1002C0009C770008A47700082DE9F04F002A65D03C
:1002D00002460D4600F5007655F8041BB2F804A05E
:1002E0001088B2F80880B2F802E0D488B2F80AB0F8
:1002F000B2F80C904B0803F0553301F055310B4424
:10030000C3F3012C03F00301D444C3F3014AC244F4
:100310000144C3F38108C3F38120ACEB000CA1EBD3
:1003200008010027C3F30130C3F301182044F0444F
:10033000C3F38134BE46001B6CF30F0ED48961F306
:100340000F07C3F38141AAEB010C60F31F4EC3F307
:100350000161C3F30150A4EB937458444944C3F3BF
:10036000815BC3F3816AC3F30179C3F38113A8EB03
:100370000308A0EB0B0068F31F47A1EB0A0104EB95
:1003800009031760C2F804E0A2F808C05081918107
:10039000D3811032B2429FD1BDE8F08F02468C4625
:1003A00000F500765CF8040B430803F0553300F0C9
:1003B00055300344C3F3810EC3F38120002103F0C1
:1003C0000305C3F30124A5EB0E05C3F38119241A19
:1003D000C3F3813E0F46C3F30118C3F30130A8EB0A
:1003E0000908A0EB0E0065F30F0164F30F07C3F3D8
:1003F000014AC3F38145C3F30154C3F38159C3F3E5
:10040000016E68F31F4160F31F47C3F38168C3F3B4
:100410000170AAEB0505A4EB0904AEEB080EA0EBF6
:1004200093731160576015815481A2F80CE0D38159
:1004300010329642B6D1BDE8F08F00BF2DE9F041F1
:100440009646ADF6486DDEF80C30054602AC1068F5
:100450000F4651689268A446ACE80F00DEF8100021
:10046000DEF81410DEF81820DEF81C304FF0030818
:10047000ACE80F002146204621228DF8288002F0AA
:1004800095F800231A460AA992A800F061FF0AA96C
:100490000DF589600023012200F05AFF0AA900230C
:1004A00002220DF5C96000F053FF002692A801F06A
:1004B0002FF933460DF6480292A912A8009401962E
:1004C00000F0D8FA12A800F05DFF424601230AA905
:1004D00012A800F03DFF12A800F052FF12A9284612
:1004E00000F0E0FE0DF6480292A9012312A8CDE922
:1004F000004600F045FB12A800F044FF012304224F
:100500000AA912A800F024FF12A800F039FF12A9CE
:1005100005F5C07000F0C6FE0DF6480292A9022350
:1005200012A8CDE9004600F02BFB12A800F02AFF2C
:10053000012305220AA912A800F00AFF12A800F060
:100540001FFF12A905F5407000F0ACFE92A93846D5
:1005500001F0B6F8A446BCE80F00C5F88004C5F861
:100560008414C5F88824C5F88C34BCE80F00C5F89D
:100570009004C5F89414C5F89824C5F89C340DF679
:10058000486DBDE8F08100BF2DE9F04FADF5905DFD
:1005900083B01D460023064602F5906A0DF5C16042
:1005A000174689461A46294600F0D2FE002301224A
:1005B00029460DF6080000F0CBFE00230222294652
:1005C0000DF6082000F0C4FE01240DF5C16001F015
:1005D0009FF800230DF608420DF5C16102A8CDF881
:1005E00000A0019400F046FA02A800F0CBFE2346DA
:1005F0000322294602A800F0ABFE02A800F0C6FEC6
:10060000002202A9304600F043FCA3465FFA84F8BA
:1006100043460DF608420DF5C16102A8CDE900ABD5
:1006200000F0AEFA02A800F0ADFE012308F10302CB
:10063000294602A800F08CFE02A800F0A7FE224680
:1006400002A9304600F024FC012C01D10224DDE790
:1006500082AC394602A800F045FE0DF6084302AA16
:100660000DF5C161204600F085FE07F5C07102A8B6
:1006700000F038FE0DF6086302AA0DF608012046C8
:1006800000F07AFE07F5407102A800F02BFE0DF590
:1006900080530DF6082102AA08330DF5C1600094BD
:1006A00000F06CFE0DF5C16000F06CFE01232946E0
:1006B00006220DF5C16000F04BFE494602A800F08D
:1006C0006BFE0DF5C16102AA084600F061FE0DF552
:1006D000C16000F05BFE0DF5C16106F5707000F0C1
:1006E000D5FA0DF5905D03B0BDE8F08F2DE9F04F20
:1006F000ADF5905D85B01F46002380468A4602F521
:10070000906B39460DF5C26091461A4600F020FE06
:100710000023012239460DF5016000F019FE002387
:10072000022239460DF5216000F012FE01250DF57B
:10073000C26000F0EDFF00230DF541620DF5C261CE
:1007400004A8CDF800B0019500F094F904A800F0D9
:1007500019FE2B460322394604A800F0F9FD04A82F
:1007600000F014FE002204A9404600F005FDCDF87B
:100770000CA00446C6175FFA85FA01230DF5416205
:100780000DF5C261CDE900B304A8534600F0F8F9B5
:1007900004A800F0F7FD01230AF10302394604A87A
:1007A00000F0D6FD04A800F0F1FD2A4604A9404659
:1007B00000F0E2FC012D44EA000446EAE07601D1B3
:1007C0000225D8E784AD494604A8DDF80CA000F066
:1007D00089FD0DF5416304AA0DF5C261284600F0BC
:1007E000C9FD09F5C07104A800F07CFD0DF5616339
:1007F00004AA0DF50161284600F0BEFD09F540711F
:1008000004A800F06FFD0DF580530DF5216104AAD9
:1008100010330DF5C260009500F0B0FD0DF5C2601B
:1008200000F0B0FD0123394606220DF5C26000F04C
:100830008FFD514604A800F0AFFD0DF5C26104AA7A
:10084000084600F0A5FD0DF5C26000F09FFD0DF516
:10085000C26108F5707000F0DDFB0443644246EAB3
:10086000E07060EB4000C00F0DF5905D05B0BDE895
:10087000F08F00BF70B5ADF5006D1546064600223D
:1008800068460C4600F07EFB684600F079FD2A467B
:1008900069460DF5806000F043FD2146012280A8E5
:1008A00000F070FB80A800F06BFD05F5C07280A918
:1008B0000DF5806000F03AFD2146022280A800F08C
:1008C00061FB80A800F05CFD0DF5806305F54072CA
:1008D00080A9684600F030FD684600F053FD04F53D
:1008E000707180A800F07EFA6A4680A9684600F020
:1008F00051FD684600F04AFD6946304600F06EFD45
:100900000DF5006D70BD00BF70B590B00C4605468A
:100910004021684602F0F4FA4FF494666A46214694
:100920002846FFF78BFD3246294604F5906006F015
:1009300009FC3246294604F5126001F039FC0DF13C
:10094000200CBCE80F00C4F84009C4F84419C4F8EE
:100950004829C4F84C39BCE80F00C4F850090020FD
:10096000C4F85419C4F85829C4F85C3910B070BDE3
:1009700070B5A8B00C46064620216846154602F020
:10098000BFFAEC46BCE80F000DF1200EAEE80F00F8
:100990009CE80F008EE80F00294610A84FF49462DF
:1009A00001F006FC08A918A8402201F0FFFD2A4624
:1009B00008A9304620ABFFF7E7FD0DF1600CBCE85D
:1009C0000F0020606160A260E360BCE80F0020615E
:1009D00000206161A261E36128B070BDF0B51446EA
:1009E000A9B0054608A80E46FFF744FFD4F8200931
:1009F000D4F82419D4F82829D4F82C390DF1400C56
:100A0000ACE80F00D4F83009D4F83419D4F83829F8
:100A1000D4F83C39ACE80F0008A96046402201F048
:100A2000C5FD20AB08A904F590623046FFF75EFED5
:100A30003246074604F51461684600F0EDFE0DF1FC
:100A4000600CBCE80F0028606960AA60EB60BCE83D
:100A50000F0028616961AA61EB6102F059F828462C
:100A60003B462022694600F013FF02F051F80020B7
:100A700029B0F0BD2DE9F04F2DED068B2DED04DBF7
:100A8000ADF2945D8346DDF8E4850E4615461F46BB
:100A900032ACB8F1000F59D0DDF8E01500233A462A
:100AA000204600F06FFE2246012107A801F034FA2B
:100AB000DFF8C890CDF800900DF5C87ACDE9014572
:100AC00007AB05AA3146504603F0ACFAB8F1000F67
:100AD00043D0DDF8E01501233A46204600F052FEEF
:100AE0002246012107A801F017FA05F500730293C9
:100AF000CDE9009407AB05AA06F50071504603F056
:100B00008FFBB8F1000F30D0DDF8E0153A46022334
:100B1000204600F037FE2246012107A801F0FCF92B
:100B200005F58065CDE90094CDF80CA0029507ABE2
:100B300005AA06F58061584603F07CFC0DF2945D31
:100B4000BDEC04DBBDEC068BBDE8F08FDDF8E015F5
:100B50004246204600F016FEA5E7DDF8E0153B46CC
:100B60000122204600F00EFEBAE7DDF8E0153B4614
:100B70000222204600F006FECDE700BFC07D00083F
:100B80002DE9F04F2DED068B2DED04DBADF2945DDC
:100B90008146DDF8E485DDF8E0B50E4615461F46D2
:100BA00032ACB8F1000F50D000233A4659462046E7
:100BB00000F0E8FD2246012107A801F0ADF90DF58E
:100BC000C87ACDE9004507AB05AA3146504603F087
:100BD0006FFDB8F1000F3ED001233A46594620463A
:100BE00000F0D0FD2246012107A801F095F905F596
:100BF00000730193009407AB05AA06F500715046F7
:100C000003F02AFEB8F1000F2CD03A4659460223D1
:100C1000204600F0B7FD2246012107A801F07CF92B
:100C200005F58065CDF808A00094019507AB05AAED
:100C300006F58061484603F0F1FE0DF2945DBDECCF
:100C400004DBBDEC068BBDE8F08F424659462046DA
:100C500000F098FDAEE73B4601225946204600F0E1
:100C600091FDBFE73B4659460222204600F08AFD2F
:100C7000D1E700BF014902F087BE00BFC07700087E
:100C8000014902F041BA00BFC07900082DE9F047E0
:100C90000C46061D01F5007740F60155B4F90090A9
:100CA000B4F90280B4F90410B4F906E0B4F90820EC
:100CB000B4F90A00B4F90CC0B4F90EA005EAE9735E
:100CC0004B4405EAE879C14405EAE178884405EA3D
:100CD000EE71714405EAE27E96441BB205EAE072C9
:100CE00002440FFA89F905EAEC701B01604403F233
:100CF000816305EAEA7C0FFA88F84FEA0919D444BF
:100D000009F28169C3EB831A09B24FEA081808F2A5
:100D10008168C3EB0A230FFA8EFEC9EB891A090119
:100D200001F28161C9EB0A2912B2C8EB881A4FEAB5
:100D30000E1E0EF2816EC8EB0A2800B2C1EB811ABA
:100D4000120102F28162C1EB0A210FFA8CFCCEEB98
:100D50008E1A000100F28160CEEB0A2E4FEA0C1CC5
:100D6000C2EB821A0CF2816CC2EB0A2AC0EB801231
:100D7000C0EB0222CCEB8C10CCEB002003EB830306
:100D800009EB890908EB880801EB81010EEB8E0E57
:100D90000AEB8A0A02EB820200EB80001B0F103480
:100DA0004FEA1979090F4FEA18784FEA1A7A4FEA91
:100DB0001E7E000F120F43EA091348EA01184EEA9B
:100DC0000A1E42EA0012A74206F8043C06F8038C09
:100DD00006F802EC06F8012C06F104067FF45EAF7B
:100DE000BDE8F0870B1D01F1840C40F6015113F8AA
:100DF000042C02F00F0201FB02F20832043312113C
:100E0000028013F8082C120901FB02F2103008329C
:100E1000121120F80E2C13F8072C02F00F0201FB20
:100E200002F20832121120F80C2C13F8072C1209C8
:100E300001FB02F20832121120F80A2C13F8062CDA
:100E400002F00F0201FB02F20832121120F8082C06
:100E500013F8062C120901FB02F20832121120F8D5
:100E6000062C13F8052C02F00F0201FB02F20832E7
:100E7000121120F8042C13F8052C120901FB02F2C0
:100E800008321211634520F8022CB0D1704700BF20
:100E90002DE9F04702EB820200F5A0768E46384934
:100EA00000EB821406EB821640F6015540F2816C8D
:100EB000BEF90000BEF90270BEF90430BEF906901A
:100EC00005EAE072024405EAE770384492B205EAA6
:100ED000E3771F44920205EAE97380B212EB0C0239
:100EE0004B444FF000084FEA8020BFB24FF0000A99
:100EF00048F10008BF0210EB0C009BB2A0FB0109F7
:100F00004FEA8323A2FB01204AF1000217EB0C07F2
:100F100001FB080801FB0292A7FB01704AF10009DE
:100F200013EB0C03C2F3090201FB09004AF1000AAA
:100F3000A3FB0173C8F30908C0F309004FEA820953
:100F400001FB0A330027C3F3090368F3070749EAE3
:100F500018294FEA001848EA921869F30F279A01F6
:100F600068F3174742EA101262F31F679B08276075
:100F700023710534B4420EF1080E99D1BDE8F08713
:100F8000B7AF130000B502EB820201F5A07C0CEBB9
:100F9000821C01EB821140F601524B7891F800E07F
:100FA0001B0203F4407343EA0E0302FB03F303F551
:100FB00000739B0A03808B7891F801E09B0103F496
:100FC000707343EA9E0302FB03F303F500739B0A6D
:100FD0004380CB7891F802E01B0103F47C7343EA71
:100FE0001E1302FB03F303F500739B0A83800B7946
:100FF00091F803E09B0043EA9E1302FB03F303F521
:10100000007305319B0A8C45C38000F10800C4D1F0
:101010005DF804FB2DE9F04F0D46074601F5007918
:101020004FF0000840F60156B5F90020B5F904B0BC
:10103000B5F90640B5F908A0B5F90A00B5F90CE014
:10104000B5F90E1006EAE27313441BB21B0103F25A
:101050008163C3EB8312C3EB022303EB83034FEAE9
:10106000137C06EAEB735B4406EAE47B5C4406EA25
:10107000EA7BDA4406EAE07BB5F9022058441BB269
:1010800006EAEE7BDE441B0106EAE17B24B203F2B2
:1010900081635944240106EAE27B04F281645A44E4
:1010A000C3EB831BC3EB0B23C4EB841BC4EB0B24EC
:1010B00003EB830304EB8404240F0FFA8AFA1B0F5B
:1010C00043EA04134FEA0A1A7C7897F803B000B297
:1010D0000AF2816A00010FFA8EFE00F2816063401D
:1010E0004FEA0E1ECAEB8A1409B20EF2816ECAEBE9
:1010F00004240901C0EB801A01F28161C0EB0A20CF
:10110000CEEB8E1ACEEB0A2E04EB8404C1EB811ACF
:1011100000EB8000C1EB0A2A000F240F44EA001400
:101120000EEB8E0EB8780AEB8A0A12B24FEA1A7AE0
:101130004FEA1E714440120141EA0A1102F2816233
:1011400081EA0B0123430B43C2EB8211C2EB012264
:1011500002EB820217F8040B120F4CEA021C103546
:101160008CEA000C43EA0C03A94548EA03087FF423
:101170005BAF4046BDE8F08F2DE9F047844602EBB7
:10118000820200F5A075084645490CEB821C05EB70
:101190008215002640F6015440F2816EB0F90070CD
:1011A000B0F90220B0F9049004EAE7733B4404EA82
:1011B000E27890449BB204EAE9729B021FFA88F835
:1011C0004A444FF0000A13EB0E094FEA882392B20B
:1011D0004AF1000813EB0E03A3FB013A4FEA822207
:1011E000A9FB01394FF0000343F1000312EB0E029B
:1011F000B0F9067001FB0899A2FB01284FF000022C
:1012000042F1000201FB028804EAE7723A4492B21A
:10121000920212EB0E024FF0000747F1000701FBAC
:1012200003A3A2FB01A201FB0722C2F309079CF85A
:1012300000A0C8F30908BF01C9F30909C3F30903F2
:1012400047EA18174FEA08188AEA090A48EA931881
:101250009B0046EA0A0643EA19239CF802A09CF880
:10126000019088EA0A0883EA09039CF8049043EA9B
:101270000803C2F387029CF8038082EA0902134341
:1012800087EA08073B430CF1050C3343AC4503F0F8
:10129000FF0600F1080081D13046BDE8F08700BFAD
:1012A000B7AF130038B50D460446084603F0DCFD21
:1012B000284603F0D9FD00232046A91C35F923C098
:1012C00031F9232080F800C0CCF30724013344EA2D
:1012D0000214802BC2F30B124470827000F10300E1
:1012E000ECD138BD00B5002200F1020E4B7891F828
:1012F00000C01B0203F470634CEA030320F82230A1
:101300008B7891F801C01B0143EA1C132EF82230A0
:101310000132802A01F10301E8D15DF804FB00BF2E
:10132000014B03F08FBC00BFC07D0008014B03F0F0
:10133000D7BC00BFC07D000800B583B00093034B4D
:1013400003F020FD03B05DF804FB00BFC07D000882
:1013500030B51446A1B01D460A46234680210446F6
:10136000684600F035FA2A4669462046FEF7ACFF8B
:1013700021B030BD01F02CBE01F050BE01F07CBEAA
:10138000FFF778BCFFF77CBC03F000BE03F06CBD38
:1013900001F0FCBD01F0D8BD2DE9F8434FF0000885
:1013A000871E0E46C1463D46002425F8029F32782E
:1013B000224140F28161284602F00102013401F02D
:1013C000B9FD082CF1D108F10808B8F5807F07F1C4
:1013D000100706F10106E6D1BDE8F88310B5421EFC
:1013E00001F5007C002002F8010FB1F900305B002C
:1013F00003F28163C3EB8314C3EB042303EB830386
:10140000C3F300731370B1F902E04FEA4E0E0EF20F
:10141000816ECEEB8E14CEEB042E0EEB8E0E4FEAC9
:10142000DE6E0EF0020E43EA0E031370B1F904E013
:101430004FEA4E0E0EF2816ECEEB8E14CEEB042EE2
:101440000EEB8E0E4FEA9E6E0EF0040E43EA0E0374
:101450001370B1F906E04FEA4E0E0EF2816ECEEB3C
:101460008E14CEEB042E0EEB8E0E4FEA5E6E0EF057
:10147000080E43EA0E031370B1F908E04FEA4E0E6E
:101480000EF2816ECEEB8E14CEEB042E0EEB8E0E92
:101490004FEA1E6E0EF0100E43EA0E031370B1F900
:1014A0000AE04FEA4E0E0EF2816ECEEB8E14CEEBBA
:1014B000042E0EEB8E0E4FEADE5E0EF0200E103183
:1014C00043EA0E03137031F904EC4FEA4E0E0EF2AC
:1014D000816ECEEB8E14CEEB042E0EEB8E0E4FEA09
:1014E0009E5E0EF0400E43EA0E03137031F902ECDB
:1014F0004FEA4E0E0EF2816ECEEB8E14CEEB042E22
:101500000EEB8E0E4FEA1E7E43EACE138C4513700F
:101510007FF469AF10BD00BF4FF40072002105F0E9
:10152000BFBD00BF2DE9F04F00F5A07600F5A06823
:101530003D480F4640F6015540F2816CA6F5A07477
:10154000BE46BEF90010BEF90220BEF90490BEF9F5
:1015500006B005EAE1730B4405EAE27111449BB25F
:1015600005EAE9729B0289B24A444FF0000A13EB84
:101570000C094FEA812105EAEB734AF1000A5B444A
:1015800011EB0C0192B2A1FB001B4FEA8222A9FBD6
:1015900000919BB24FF0000900FB0A1149F10009CC
:1015A0009B0212EB0C024FF0000A4AF1000A00FB0A
:1015B00009B913EB0C03A2FB002B4FF0000242F120
:1015C0000002C9F3090900FB0ABBA3FB00A3C1F396
:1015D000090100FB02334FEA890A0022CBF3090B11
:1015E00061F307024AEA1121C3F3090361F30F22F1
:1015F0004FEA0B1141EA9919990169F3174241EA3F
:101600001B1161F31F629B08226023710534B442F1
:101610000EF1080E95D104F5A076464507F5007742
:101620008CD1BDE8F08F00BFB7AF130070B501F5E6
:10163000A074A64601F5707540F6015C02464B7831
:101640000E781B0203F4407333430CFB03F303F5E2
:1016500000739B0A13808B784E789B0103F47073A0
:1016600043EA96030CFB03F303F500739B0A5380D4
:10167000CB788E781B0103F47C7343EA16130CFBC2
:1016800003F303F500739B0A93800B79CE789B00DC
:1016900043EA96130CFB03F303F5007305319B0A31
:1016A0007145D38002F10802C9D1AC4221460EF542
:1016B000A07E00F5007002D004F5A074BEE770BDF6
:1016C00038B504460D46FFF7EDFD05F5007104F54C
:1016D000C070FFF7E7FD05F5806104F54070BDE8D7
:1016E0003840FFF7DFBD00BF38B504460D46FFF7B1
:1016F000F9FD05F5C07104F50070FFF7F3FD05F580
:10170000407104F58060BDE83840FFF7EBBD00BFD5
:1017100010B50446FFF734FE04F50070FFF730FE05
:1017200004F58060BDE81040FFF72ABE10B50446FE
:10173000FFF728FE04F50070FFF724FE04F5806033
:10174000BDE81040FFF71EBE10B50446FFF71EFEB1
:1017500004F50070FFF71AFE04F58060BDE8104044
:10176000FFF714BEF8B507460E46154600242A19A1
:101770003119381904F50074FFF70AFEB4F5C06F8B
:10178000F5D1F8BD70B58E468AB006461546086894
:10179000DEF8082049681C46DEF80C300DF1040C18
:1017A000ACE80F00DEF81000DEF81410DEF81820A8
:1017B000DEF81C30ACE80F00222201A930468DF87B
:1017C00024508DF8254000F097FB0AB070BD00BF93
:1017D00070B596468AB005460E4610685168926804
:1017E0001C46DEF80C300DF1040CACE80F00DEF8FE
:1017F0001000DEF81410DEF81820DEF81C30ACE81B
:101800000F00212301AA314628468DF8244000F01C
:1018100045FC0AB070BD00BF70B5B4B004460E46BA
:101820006846154600F0DAF931466846202200F095
:10183000E1F929464FF48862684600F0DBF9684612
:1018400000F014FA6A462021204600F03BFA684670
:1018500000F082FA34B070BDBAB100F1FF3C00B5BF
:10186000013962444FF0000E1CF8013F11F8010FDE
:10187000624583EA000343EA0E0EF5D1DEF1000E65
:1018800062EB0202D00F5DF804FB1046704700BF08
:10189000002A5ED05B422DE9F0435FFA83FE531EBF
:1018A000022B03D94B1CC31A022B13D80244013953
:1018B0000138013A10F801CF11F8013F8CEA030317
:1018C0000EEA03038CEA030C904280F800C0F1D1C9
:1018D000BDE8F08300256EF307056EF30F256EF368
:1018E000174522F003066EF31F6584460C464FEA47
:1018F00092088719DCF8009054F8043B83EA090346
:101900002B4083EA09034CF8043BBC45F2D1B242B8
:10191000DED010F8284011F8283063400EEA0303A7
:101920005C4000F82840741CA242D1D9055D0B5DD3
:101930006B4002360EEA03035D40B2420555C7D93B
:10194000825D8B5D53400EEA03035A408255BDE829
:10195000F083704770B582B0872A14468DF807303F
:1019600006460D460DD9294688230022304603F04D
:1019700047FC883C304603F0C3FF872C05F18805FF
:10198000F1D894B922460DF107013046012303F046
:1019900037FC8024012387220DF1070130468DF8A2
:1019A000074003F02DFC02B070BD234600222946FB
:1019B000304603F025FC872CE4D19DF80750012325
:1019C00065F07F0522460DF1070130468DF807507E
:1019D00003F016FC02B070BD70B582B0A72A1446A1
:1019E0008DF8073006460D460DD92946A82300225A
:1019F000304603F005FCA83C304603F081FFA72CDD
:101A000005F1A805F1D894B922460DF10701304639
:101A1000012303F0F5FB80240123A7220DF1070128
:101A200030468DF8074003F0EBFB02B070BD234653
:101A300000222946304603F0E3FBA72CE4D19DF8B1
:101A40000750012365F07F0522460DF1070130465E
:101A50008DF8075003F0D4FB02B070BD10B5C8225A
:101A60000021044605F01CFB00220023C4E93223B8
:101A700010BD00BF2DE9704315460446D0E9322061
:101A8000AB1840F10000A82B70F100000E461FD3E8
:101A90004FF000084FF00009C2F1A803314620467C
:101AA00003F0AEFBD4F8C8302046A3F1A802C4E985
:101AB0003289C3F1A80315441E4403F021FFD4E981
:101AC0003220531940F10000A82B70F10000E3D23E
:101AD0002B463146204603F093FBD4E932325B19A2
:101AE00042F10002C4E93232BDE8708310B5D0E99A
:101AF000322182B01F238DF80730A2F1A7030B43D8
:101B0000044614D001230DF1070103F079FB802076
:101B10008DF807000123A7220DF10701204603F0ED
:101B20006FFB00220023C4E9322302B010BD9F21C5
:101B30008DF807100123A7220DF1070103F060FBC8
:101B4000EFE700BF2DE9F843D2E932694FF0000812
:101B5000B14278EB090315460C460746C6F1A802C8
:101B60000DD20B460146284603F0CAFCD5E93232B5
:101B70001B1B62F10002C5E93232BDE8F88333462F
:101B80000146284603F0BCFCD5F8C8309B1BC5F8BD
:101B9000C830D5F8CC30374463EB0903A61BC5F831
:101BA000CC30EAD0284603F0ABFEA82E344628BF3E
:101BB000A824234639460022284603F0A1FCC4F19C
:101BC000A803361BC5E932382744EBD1BDE8F883BA
:101BD000D02205F0B7BA00BF704700BF10B5C822C9
:101BE0000021044605F05CFA00220023C4E93223F8
:101BF00010BD00BF2DE9704315460446D0E93220E0
:101C0000AB1840F10000882B70F100000E461FD386
:101C10004FF000084FF00009C2F18803314620461A
:101C200003F0EEFAD4F8C8302046A3F18802C4E9E4
:101C30003289C3F1880315441E4403F061FED4E9E0
:101C40003220531940F10000882B70F10000E3D2DC
:101C50002B463146204603F0D3FAD4E932325B19E1
:101C600042F10002C4E93232BDE8708310B5D0E918
:101C7000322182B01F238DF80730A2F187030B4376
:101C8000044614D001230DF1070103F0B9FA8020B6
:101C90008DF80700012387220DF10701204603F08C
:101CA000AFFA00220023C4E9322302B010BD9F2105
:101CB0008DF80710012387220DF1070103F0A0FA28
:101CC000EFE700BF2DE9F843D2E932694FF0000891
:101CD000B14278EB090315460C460746C6F1880267
:101CE0000DD20B460146284603F00AFCD5E93232F4
:101CF0001B1B62F10002C5E93232BDE8F8833346AE
:101D00000146284603F0FCFBD5F8C8309B1BC5F8FC
:101D1000C830D5F8CC30374463EB0903A61BC5F8AF
:101D2000CC30EAD0284603F0EBFD882E344628BF9D
:101D30008824234639460022284603F0E1FBC4F1FB
:101D40008803361BC5E932382744EBD1BDE8F88358
:101D5000D02205F0F7B900BF704700BFF0B50F46BD
:101D600083B015460021C82204461E4605F098F9A6
:101D70000C4B009341F201036946ADF80430002298
:101D800008232046ADF8067003F03AFA204603F027
:101D9000B7FD0423324629462046FFF71DFE03B057
:101DA000F0BD00BF01A8010089B170B50546164617
:101DB0000C46304603F0A4FD2946A82300223046F5
:101DC00003F09EFB013C05F1A805F2D170BD704700
:101DD0002DE9F04DB8B014460746C8220E4604A8B7
:101DE00000219846409D05F05BF9424B029341F279
:101DF0000103ADF80C30082304A800220DEB030109
:101E00004FF0000A4FF0000BCDE936ABADF80E40B5
:101E100003F0F6F904A80FE0C2F1A803414604A8B4
:101E200003F0EEF9369BCDE936ABA3F1A802C3F17E
:101E3000A80304A81544984403F062FDDDE93624A4
:101E4000531944F10004A82B74F10004E4D2414674
:101E50002B4604A803F0D4F9369BEA18379B369238
:101E60004FF0040143F100038DF80710A2F1A70120
:101E70001943379332D001230DF1070104A803F071
:101E8000BFF980238DF807300DF107010123A72248
:101E900004A803F0B5F900220023CDE93623394622
:101EA0000023A82204A803F02BFBA6B1002504A858
:101EB00003F026FDA82E344628BFA8242346394621
:101EC000002204A803F01CFBC4F1A803361BCDE9D3
:101ED00036352744EBD138B0BDE8F08D84228DF83B
:101EE00007200123A7220DF1070104A803F088F9B8
:101EF000D1E700BF01A8010070B5164604460D46A3
:101F0000C822002105F0CCF83246294620461F237E
:101F1000BDE8704060E500BF89B170B50546164662
:101F20000C46304603F0ECFC2946A823002230463C
:101F300003F0E6FA013C05F1A805F2D170BD704747
:101F40002DE9F043B7B01C4606460D461746002162
:101F5000C82202A805F0A4F84FF000084FF00009CD
:101F6000A72CCDE934894FF000021AD93946C2F1C5
:101F7000A80302A803F044F9349B02A8A3F1A80225
:101F8000C3F1A80314441F44CDE9348903F0B8FC1D
:101F9000DDE93423111943F10003A82973F100038B
:101FA000E4D23946234602A803F02AF9349BE2180A
:101FB000359B34924FF01F0143F100038DF8071059
:101FC000A2F1A7011943359332D001230DF1070186
:101FD00002A803F015F980238DF807300DF10701F1
:101FE0000123A72202A803F00BF900220023CDE968
:101FF000342331460023A82202A803F081FAA5B1B8
:10200000002702A803F07CFCA82D2C4628BFA8249A
:1020100023463146002202A803F072FAC4F1A80355
:102020002D1BCDE934372644EBD137B0BDE8F08322
:102030009F228DF807200123A7220DF1070102A896
:1020400003F0DEF8D1E700BF704700BFC82205F0FB
:1020500079B800BF70B5164604460D46C822002167
:1020600005F01EF83246294620461F23BDE8704081
:1020700070E400BF89B170B5054616460C4630467F
:1020800003F03EFC294688230022304603F038FA4C
:10209000013C05F18805F2D170BD70472DE9F04390
:1020A000B7B01C4606460D4617460021C82202A8B6
:1020B00004F0F6FF4FF000084FF00009872CCDE93F
:1020C00034894FF000021AD93946C2F1880302A8B8
:1020D00003F096F8349B02A8A3F18802C3F18803A9
:1020E00014441F44CDE9348903F00AFCDDE93423AC
:1020F000111943F10003882973F10003E4D2394632
:10210000234602A803F07CF8349BE218359B3492F6
:102110004FF01F0143F100038DF80710A2F1870172
:102120001943359332D001230DF1070102A803F0C2
:1021300067F880238DF807300DF10701012387220E
:1021400002A803F05DF800220023CDE934233146D4
:102150000023882202A803F0D3F9A5B1002702A822
:1021600003F0CEFB882D2C4628BF88242346314619
:10217000002202A803F0C4F9C4F188032D1BCDE9A5
:1021800034372644EBD137B0BDE8F0839F228DF879
:102190000720012387220DF1070102A803F030F880
:1021A000D1E700BF704700BFC82204F0CBBF00BF1B
:1021B0002DE97043B6B014460546C8220E4602A863
:1021C000002104F06DFF4FF000084FF00009872C4C
:1021D000CDE934894FF000021AD93146C2F18803A3
:1021E00002A803F00DF8349B02A8A3F18802C3F102
:1021F000880314441E44CDE9348903F081FBDDE9F2
:102200003423111943F10003882973F10003E4D248
:102210003146234602A802F0F3FFDDE9342306210C
:10222000A21843F100038DF80710A2F187011943AA
:10223000CDE9342325D001230DF1070102A802F0D6
:10224000DFFF80228DF8072001230DF1070187228F
:1022500002A802F0D5FF00200021CDE934010023BF
:102260002946882202A803F04BF902A803F048FB94
:1022700020230022294602A803F042F936B0BDE827
:10228000708386218DF80710012387220DF1070145
:1022900002A802F0B5FFDEE710B5C822002104460F
:1022A00004F0FEFE00220023C4E9322310BD00BF6B
:1022B0002DE9704315460446D0E93220AB1840F1B1
:1022C0000000882B70F100000E461FD34FF000086D
:1022D0004FF00009C2F188033146204602F090FF1A
:1022E000D4F8C8302046A3F18802C4E93289C3F18A
:1022F000880315441E4403F003FBD4E9322053192C
:1023000040F10000882B70F10000E3D22B463146EB
:10231000204602F075FFD4E932325B1942F1000227
:10232000C4E93232BDE8708370B50E46D1E932217E
:10233000A2B006238DF80030A2F187030B430546B7
:102340006C4629D001232146304602F059FF8022F5
:1023500021468DF8002030460123872202F050FFED
:1023600000220023C6E93223304603F0C9FA304682
:1023700021468823002203F0C3F8A446BCE80F00DE
:1023800028606960AA60EB60BCE80F0028616961A1
:10239000AA61EB6122B070BD8622D9E7D02204F099
:1023A000D1BE00BF704700BF10B5C822002104464F
:1023B00004F076FE00220023C4E9322310BD00BFE2
:1023C0002DE9704315460446D0E93220AB1840F1A0
:1023D0000000682B70F100000E461FD34FF000087C
:1023E0004FF00009C2F168033146204602F008FFB1
:1023F000D4F8C8302046A3F16802C4E93289C3F199
:10240000680315441E4403F07BFAD4E932205319C3
:1024100040F10000682B70F10000E3D22B463146FA
:10242000204602F0EDFED4E932325B1942F100029F
:10243000C4E93232BDE8708370B50E46D1E932216D
:102440009AB006238DF80030A2F167030B430446CF
:102450006D462ED001232946304602F0D1FE80225F
:10246000294601238DF800203046672202F0C8FE7D
:1024700000220023C6E93223304603F041FA6823E4
:1024800000223046294603F03BF8A6460CACAC4689
:10249000BCE80F00A4450EF1100E65464EF8100C76
:1024A0004EF80C1C4EF8082C4EF8043CEFD11AB034
:1024B00070BD8622D4E700BFD02204F043BE00BF27
:1024C000704700BF2DE97043B6B014460546C822D8
:1024D0000E4602A8002104F0E3FD4FF000084FF083
:1024E0000009672CCDE934894FF000021AD9314632
:1024F000C2F1680302A802F083FE349B02A8A3F194
:102500006802C3F1680314441E44CDE9348903F022
:10251000F7F9DDE93423111943F10003682973F158
:102520000003E4D23146234602A802F069FEDDE949
:1025300034230621A21843F100038DF80710A2F1FD
:1025400067011943CDE9342325D001230DF107019B
:1025500002A802F055FE80228DF8072001230DF11C
:102560000701672202A802F04BFE00200021CDE9FE
:10257000340100232946682202A802F0C1FF02A804
:1025800003F0BEF930230022294602A802F0B8FF6A
:1025900036B0BDE8708386218DF8071001236722CD
:1025A0000DF1070102A802F02BFEDEE72DE97043D2
:1025B000B6B014460546C8220E4602A8002104F013
:1025C0006FFD4FF000084FF00009472CCDE934892A
:1025D0004FF000021AD93146C2F1480302A802F0B6
:1025E0000FFE349B02A8A3F14802C3F14803144430
:1025F0001E44CDE9348903F083F9DDE93423111950
:1026000043F10003482973F10003E4D23146234625
:1026100002A802F0F5FDDDE934230621A21843F1FA
:1026200000038DF80710A2F147011943CDE93423C7
:1026300025D001230DF1070102A802F0E1FD80225F
:102640008DF8072001230DF10701472202A802F0AF
:10265000D7FD00200021CDE934010023294648227E
:1026600002A802F04DFF02A803F04AF9402300221D
:10267000294602A802F044FF36B0BDE870838621E7
:102680008DF80710012347220DF1070102A802F07F
:10269000B7FDDEE710B5C8220021044604F000FDB6
:1026A00000220023C4E9322310BD00BF2DE970438E
:1026B00015460446D0E93220AB1840F10000482B03
:1026C00070F100000E461FD34FF000084FF00009D4
:1026D000C2F148033146204602F092FDD4F8C830DA
:1026E0002046A3F14802C4E93289C3F148031544E6
:1026F0001E4403F005F9D4E93220531940F10000DB
:10270000482B70F10000E3D22B463146204602F000
:1027100077FDD4E932325B1942F10002C4E932326A
:10272000BDE8708370B50E46D1E9322192B0062320
:102730008DF80030A2F147030B4304466D462ED0BE
:1027400001232946304602F05BFD80222946012301
:102750008DF800203046472202F052FD002200236F
:10276000C6E93223304603F0CBF848230022304636
:10277000294602F0C5FEA64610ACAC46BCE80F00E8
:10278000A4450EF1100E65464EF8100C4EF80C1CC8
:102790004EF8082C4EF8043CEFD112B070BD8622E2
:1027A000D4E700BFD02204F0CDBC00BF704700BF0B
:1027B000F0B50F4683B015460021C82204461E46D8
:1027C00004F06EFC0C4B009341F201036946ADF836
:1027D0000430002208232046ADF8067002F010FDF8
:1027E000204603F08DF80423324629462046FFF7A1
:1027F000B1F803B0F0BD00BF0188010089B170B528
:10280000054616460C46304603F07AF829468823DA
:102810000022304602F074FE013C05F18805F2D139
:1028200070BD70472DE9F04DB8B014460746C82278
:102830000E4604A800219846409D04F031FC424B0E
:10284000029341F20103ADF80C30082304A80022E2
:102850000DEB03014FF0000A4FF0000BCDE936AB52
:10286000ADF80E4002F0CCFC04A80FE0C2F18803E2
:10287000414604A802F0C4FC369BCDE936ABA3F177
:102880008802C3F1880304A81544984403F038F87B
:10289000DDE93624531944F10004882B74F1000457
:1028A000E4D241462B4604A802F0AAFC369BEA1863
:1028B000379B36924FF0040143F100038DF8071067
:1028C000A2F187011943379332D001230DF107019B
:1028D00004A802F095FC80238DF807300DF1070164
:1028E0000123872204A802F08BFC00220023CDE9FB
:1028F000362339460023882204A802F001FEA6B13F
:10290000002504A802F0FCFF882E344628BF882446
:1029100023463946002204A802F0F2FDC4F18803E0
:10292000361BCDE936352744EBD138B0BDE8F08D04
:1029300084228DF80720012387220DF1070104A8C6
:1029400002F05EFCD1E700BF0188010010B540F243
:10295000912004F00DFE40F20E3004F009FE4FF419
:10296000C063032201214FF090401B4C04F0B0FCE7
:102970004FF4C06207214FF0904004F0C4FC4FF4C4
:10298000C063012202214FF0904004F081FC2046F8
:102990004FF4164104F01AFE2046082104F021FEEF
:1029A0002046002104F026FE20460C2104F02EFED5
:1029B0002046002104F024FE0021204604F02CFED5
:1029C000204604F048FE204604F04AFE2046BDE8BA
:1029D000104004F027BE00BF0038014008B50420B5
:1029E00004F0A2FE6FF07F4004F092FE04F0A6FE19
:1029F000BDE8084004F0A9BE08B540F2912004F0FB
:102A0000B7FD4FF4805301214FF09040002204F0B5
:102A10003FFCBDE808404FF480514FF0904004F077
:102A20002BBC00BF10B54FF4247004F0A1FD0120B1
:102A300004F028FD012004F0A9FD012004F0FCFCB5
:102A4000012004F0D9FC012004F0D6FC1F4C2049E1
:102A5000204A214B236000200B60136004F056FDD8
:102A6000002004F049FD002004F03CFD012004F0AA
:102A70002FFD012004F0C8FCFFF768FF40F2912011
:102A800004F076FD4FF48053002201214FF0904076
:102A900004F0FEFB4FF480514FF0904004F0ECFB4B
:102AA0000E4C042004F040FE6FF07F4004F030FE36
:102AB00004F044FE04F049FED4E90001D4E9002307
:102AC0008B4208BF8242F9D010BD00BF0C0000202D
:102AD000080000200400002000366E0110000020D5
:102AE000017879B138B5094D0446284604F09FFDB8
:102AF00014F8011F0029F8D1BDE8384003480A2125
:102B000004F095BD01480A2104F091BD0038014050
:102B10004FF480514FF0904004F0B1BB10B4054C1D
:102B2000D4E90023501C43F10001C4E900015DF821
:102B3000044B70471000002070B50B4ED6E90045DD
:102B400004F0ECFDD6E90023AB4208BFA242F5D168
:102B5000621C45F1000113060906181A41EA122108
:102B600061F1000170BD00BF10000020024A034661
:102B70001068034413607047000000206846024B51
:102B80001B68C01A704700BF00000020054B0649B3
:102B90001A6806488B686B4642F8040B9A42FBDBC6
:102BA0008B6070470000002010000020EFBEADDEFB
:102BB000084B094A9B68126808490020A3EB0200F1
:102BC00052F804CB8C450CBF043801E09A42F7DB85
:102BD000704700BF1000002000000020EFBEADDEF7
:102BE000024B58221A604FF0FF30704794000020CB
:102BF000024B58221A604FF0FF30704794000020BB
:102C0000024B58221A604FF0FF30704794000020AA
:102C1000024B58221A604FF0FF307047940000209A
:102C2000024B58221A600020704700BF9400002019
:102C3000024B58221A604FF0FF307047940000207A
:102C4000024B58221A604FF0FF307047940000206A
:102C5000024B58221A604FF0FF307047940000205A
:102C6000024B58221A604FF0FF307047940000204A
:102C700008B5024804F0E6FCC0B208BD00380140C7
:102C80002DE9F04F6D4B91B09A680D900646D3E94F
:102C9000000182F0090B6A4A9F6981F0070511461D
:102CA000324604320E921A69DE690B9580F00904EF
:102CB0000A9482F002095C6A5A691D6A82F003086C
:102CC00084F002020C929A6A82F0060EDA6ADB68DD
:102CD00082F0040C5B4A019205220492092007222B
:102CE000CDE9052002240822CDE9074283F0030A3A
:102CF0000C460323CDE9023309930FCC0F940E9CAD
:102D00000FC423460F9C94E8070083E80700DDE921
:102D10000A100C9C87F0080786F0040685F006056B
:102D2000019B03F1E45303F5062303F58E63A3F13E
:102D3000C343A3F59103A3F247638CF002021A4444
:102D400082EAFC62114481F001021A4482EA716253
:102D5000104480F004021A4482EAF05293448BF04B
:102D600001021A4482EAFB4292448AF005021A44A4
:102D700082EAFA62914489F009021A4482EA79628D
:102D8000904488F002021A4482EAF852174487F00D
:102D900006021A4482EAF742164486F005021A44F3
:102DA00082EAF662154485F003021A4482EA7562EB
:102DB000144484F005021A4482EAF45296448EF0D8
:102DC00008021A4482EAFE429444019A9342AED128
:102DD000029B83EA09030293039B83EA080303939C
:102DE000089B7B400893099B73400993079B6B40AA
:102DF0000793059B63400593069B83EA0E030693A6
:102E0000049B83EA0C03049313460F4A934201D0B8
:102E1000019285E70D9B029A1A60039A5A60089AFC
:102E20009A60099ADA60079A1A61059A5A61069AB5
:102E30009A61049ADA6111B0BDE8F08F2000002099
:102E4000247F0008909B77E32037EFC6F0B5294E2A
:102E500037687A1C89B032601ABB736801337360BB
:102E6000002B3ED06D462846FFF70AFF0123AC46F3
:102E70003360BCE80F00204C0FC49CE80F0084E8CE
:102E80000F002846FFF7FCFEAC4640233367BCE842
:102E90000F001A4C0FC49CE80F0084E80F0009B023
:102EA000F0BD6D462846FFF7EBFEAC46BCE80F00D0
:102EB00006F130040FC49CE80F00023784E80F00CD
:102EC0003760002FDDD1736801337360002BD8D1D8
:102ED000B3680133B360002BD3D1F3680133F360DF
:102EE000CFE7B3680133B360002BBBD1F368013384
:102EF000F360B7E7200000205000002070000020A1
:102F0000A1B170B50A4D2B6F0446461853B1013B71
:102F1000EA182B6792F8302004F8012BB442F5D15F
:102F2000002070BDFFF792FF2B6FF0E70020704785
:102F300020000020B2F1000FB0F9003018BF4FEAB6
:102F40000103A0F8003070472DE9F04F40F2190E50
:102F5000F8C9B2E8001FD3FA48F3D4FA49F4D5FA15
:102F60004AF5D6FA4BF6D7FA4CF7F8C0BEF1010E87
:102F70007FF4EEAF38C9B2E80007D3FA48F3D4FAC9
:102F800049F4D5FA4AF538C0BDE8F08F2DE9F04F85
:102F900040F2190EF8C9B2E8001F93FA48F394FA08
:102FA00049F495FA4AF596FA4BF697FA4CF7F8C0B9
:102FB000BEF1010E7FF4EEAF38C9B2E8000793FA14
:102FC00048F394FA49F495FA4AF538C0BDE8F08F11
:102FD0002DE9F04F40F2400E51F8044B52F8046BCB
:102FE00051F8045B52F8047BD3F804B053F808CBD3
:102FF0002CFB06FC40F804CB24FB16FC40F804CB69
:103000002BFB07FC40F804CB25FB17FC40F804CB56
:10301000BEF1010E7FF4E0AFBDE8F08F2DE9F04F77
:1030200040F2400E51F8044B52F8046BD0F80050B7
:1030300053F804CBD0F804702CFB065C40F804CBAA
:1030400024FB167B40F804BB51F8044B52F8046B88
:10305000D0F8005053F804CBD0F804702CFB065C79
:1030600040F804CB24FB167B40F804BBBEF1010EF4
:103070007FF4D8AFBDE8F08F2DE9F04F46F6080990
:10308000C0F601584FF2013AC6F6A83ADDF824B06E
:1030900040F2400E51F8044B52F8046B5BF8045BAD
:1030A00053F804CB5BF8047B2CFB065505FB0AF5B3
:1030B00015FB389524FB167707FB0AF717FB3897A3
:1030C000C7EA254540F8045B51F8044B52F8046BFD
:1030D0005BF8045B53F804CB5BF8047B2CFB0655D0
:1030E00005FB0AF515FB389524FB167707FB0AF755
:1030F00017FB3897C7EA254540F8045BBEF1010E7F
:103100007FF4C8AFBDE8F08F2DE9F04F2DED088AB0
:10311000C0F6015CB1EC0F4A00F5007E04EE10EA47
:103120000BEE900AD0F82020D0F82430D0F82840B8
:10313000D0F82C50D0F83060D0F83470D0F8388007
:10314000D0F83C9046F6080092FA03FED2FA03F358
:1031500094FA05FBD4FA05F596FA07F2D6FA07F7C2
:1031600098FA09F4D8FA09F99EFA0BF8DEFA0BFB83
:1031700092FA04F6D2FA04F415EE10AA3AFB05FE10
:103180003AFB15F51EFB1C0E15FB1C05C5EA2E4E61
:10319000D3FA4EF593FA4EF33AFB09FE3AFB19F9CE
:1031A0001EFB1C0E19FB1C09C9EA2E4ED7FA4EF95C
:1031B00097FA4EF798FA06F2D8FA06F616EE10AA23
:1031C0003AFB07FE3AFB17F71EFB1C0E17FB1C070A
:1031D000C7EA2E4ED3FA4EF793FA4EF316EE90AAA4
:1031E0003AFB04FE3AFB14F41EFB1C0E14FB1C04F9
:1031F000C4EA2E4EDBFA0EF89BFA0EF417EE10AA74
:103200003AFB09FE3AFB19F91EFB1C0E19FB1C09BF
:10321000C9EA2E4ED5FA4EF995FA4EF518EE10BAC7
:103220003BFB03FE3BFB13F31EFB1C0E13FB1C03BB
:10323000C3EA2E4318EE90AA19EE10BA3AFB04FE28
:103240003AFB14F41EFB1C0E14FB1C04C4EA2E44AF
:103250003BFB05FE3BFB15F51EFB1C0E15FB1C0581
:10326000C5EA2E4519EE90AA1AEE10BA3AFB06FEF0
:103270003AFB16F61EFB1C0E16FB1C06C6EA2E4673
:103280003BFB07FE3BFB17F71EFB1C0E17FB1C0747
:10329000C7EA2E471AEE90AA1BEE10BA3AFB08FEB8
:1032A0003AFB18F81EFB1C0E18FB1C08C8EA2E4837
:1032B0003BFB09FE3BFB19F91EFB1C0E19FB1C090D
:1032C000C9EA2E4900EE102A00EE903A01EE104AAB
:1032D00001EE905A02EE106A02EE907A03EE108A26
:1032E00003EE909A1BEE900AD0F80020D0F804303C
:1032F000D0F80840D0F80C50D0F81060D0F8147016
:10330000D0F81880D0F81C9046F6080092FA03FE18
:10331000D2FA03F394FA05FBD4FA05F596FA07F20C
:10332000D6FA07F798FA09F4D8FA09F99EFA0BF8D1
:10333000DEFA0BFB92FA04F6D2FA04F415EE10AAA8
:103340003AFB05FE3AFB15F51EFB1C0E15FB1C0592
:10335000C5EA2E4ED3FA4EF593FA4EF33AFB09FE28
:103360003AFB19F91EFB1C0E19FB1C09C9EA2E4E6B
:10337000D7FA4EF997FA4EF798FA06F2D8FA06F607
:1033800016EE10AA3AFB07FE3AFB17F71EFB1C0EBF
:1033900017FB1C07C7EA2E4ED3FA4EF793FA4EF3EB
:1033A00016EE90AA3AFB04FE3AFB14F41EFB1C0E28
:1033B00014FB1C04C4EA2E4EDBFA0EF89BFA0EF442
:1033C00017EE10AA3AFB09FE3AFB19F91EFB1C0E78
:1033D00019FB1C09C9EA2E4ED5FA4EF995FA4EF59D
:1033E0001BEE900A10EE90BA93FA4BFED3FA4BF311
:1033F000C0F804E0C0F8243011EE90BA95FA4BFE04
:10340000D5FA4BF5C0F80CE0C0F82C5012EE90BA8B
:1034100097FA4BFED7FA4BF7C0F814E0C0F83470B7
:1034200013EE90BA99FA4BFED9FA4BF9C0F81CE0AA
:10343000C0F83C9011EE105A94FA45FED4FA45FBC0
:10344000C0F808E0C0F828B012EE107A96FA47FEED
:10345000D6FA47FBC0F810E0C0F830B013EE109A6F
:1034600098FA49FED8FA49FBC0F818E0C0F838B01D
:1034700010EE103A92FA43FED2FA43FBC0F820B0A5
:1034800040F840EB14EE10EAB0EB0E0F7FF448AEBC
:10349000A0F5007003EE100AD0F80020D0F84030FC
:1034A000D0F88040D0F8C050D0F80061D0F840711A
:1034B000D0F88081D0F8C091B1EC060A46F6080039
:1034C0004AF6B87AC0F2130A3AFB02FE3AFB12F24D
:1034D0001EFB1C0E12FB1C02C2EA2E423AFB03FE2C
:1034E0003AFB13F31EFB1C0E13FB1C03C3EA2E4313
:1034F0003AFB04FE3AFB14F41EFB1C0E14FB1C04E6
:10350000C4EA2E443AFB05FE3AFB15F51EFB1C0EE1
:1035100015FB1C05C5EA2E453AFB06FE3AFB16F6DE
:103520001EFB1C0E16FB1C06C6EA2E463AFB07FEC7
:103530003AFB17F71EFB1C0E17FB1C07C7EA2E47AA
:103540003AFB08FE3AFB18F81EFB1C0E18FB1C0881
:10355000C8EA2E483AFB09FE3AFB19F91EFB1C0E7D
:1035600019FB1C09C9EA2E4992FA03FED2FA03F3A9
:1035700094FA05FBD4FA05F596FA07F2D6FA07F79E
:1035800098FA09F4D8FA09F99EFA0BF8DEFA0BFB5F
:1035900092FA04F6D2FA04F410EE90AA3AFB05FE71
:1035A0003AFB15F51EFB1C0E15FB1C05C5EA2E4E3D
:1035B000D3FA4EF593FA4EF33AFB09FE3AFB19F9AA
:1035C0001EFB1C0E19FB1C09C9EA2E4ED7FA4EF938
:1035D00097FA4EF798FA06F2D8FA06F611EE90AA84
:1035E0003AFB07FE3AFB17F71EFB1C0E17FB1C07E6
:1035F000C7EA2E4ED3FA4EF793FA4EF312EE10AA04
:103600003AFB04FE3AFB14F41EFB1C0E14FB1C04D4
:10361000C4EA2E4EDBFA0EF89BFA0EF412EE90AAD4
:103620003AFB09FE3AFB19F91EFB1C0E19FB1C099B
:10363000C9EA2E4ED5FA4EF995FA4EF5F1E802ABED
:103640003AFB02FE3AFB12F21EFB1C0E12FB1C029E
:10365000C2EA2E423BFB03FE3BFB13F31EFB1C0E98
:1036600013FB1C03C3EA2E43F1E802AB3AFB04FE52
:103670003AFB14F41EFB1C0E14FB1C04C4EA2E447B
:103680003BFB05FE3BFB15F51EFB1C0E15FB1C054D
:10369000C5EA2E45F1E802AB3AFB06FE3AFB16F608
:1036A0001EFB1C0E16FB1C06C6EA2E463BFB07FE45
:1036B0003BFB17F71EFB1C0E17FB1C07C7EA2E4728
:1036C000F1E802AB3AFB08FE3AFB18F81EFB1C0EB1
:1036D00018FB1C08C8EA2E483BFB09FE3BFB19F906
:1036E0001EFB1C0E19FB1C09C9EA2E4913EE100A19
:1036F000C0F80061C0F84071C0F88081C0F8C09186
:10370000C0F84030C0F88040C0F8C05040F8042BEA
:1037100000F13C0E07EE10EA03EE100AD0F800208C
:10372000D0F84030D0F88040D0F8C050D0F80061D8
:10373000D0F84071D0F88081D0F8C09146F60800EA
:1037400051F804AB3AFB03FE3AFB13F31EFB1C0ECD
:1037500013FB1C03C3EA2E4ED2FA4EF392FA4EF23A
:103760003AFB05FE3AFB15F51EFB1C0E15FB1C056E
:10377000C5EA2E4ED4FA4EF594FA4EF43AFB07FE03
:103780003AFB17F71EFB1C0E17FB1C07C7EA2E4E51
:10379000D6FA4EF796FA4EF63AFB09FE3AFB19F9BD
:1037A0001EFB1C0E19FB1C09C9EA2E4ED8FA4EF955
:1037B00098FA4EF8F1E802AB3AFB04FE3AFB14F437
:1037C0001EFB1C0E14FB1C04C4EA2E4ED2FA4EF44F
:1037D00092FA4EF23BFB05FE3BFB15F51EFB1C0E61
:1037E00015FB1C05C5EA2E4ED3FA4EF593FA4EF39F
:1037F0003AFB08FE3AFB18F81EFB1C0E18FB1C08CF
:10380000C8EA2E4ED6FA4EF896FA4EF63BFB09FE63
:103810003BFB19F91EFB1C0E19FB1C09C9EA2E4EB5
:10382000D7FA4EF997FA4EF7F1E802AB3AFB06FEEB
:103830003AFB16F61EFB1C0E16FB1C06C6EA2E4EA5
:10384000D2FA4EF692FA4EF23BFB07FE3BFB17F71D
:103850001EFB1C0E17FB1C07C7EA2E4ED3FA4EF7B1
:1038600093FA4EF3F1E802AB3AFB08FE3AFB18F884
:103870001EFB1C0E18FB1C08C8EA2E4ED4FA4EF88C
:1038800094FA4EF43BFB09FE3BFB19F91EFB1C0EA0
:1038900019FB1C09C9EA2E4ED5FA4EF995FA4EF5D8
:1038A000F1E802AB3AFB02FE3AFB12F21EFB1C0EE1
:1038B00012FB1C02C2EA2E423BFB03FE3BFB13F34E
:1038C0001EFB1C0E13FB1C03C3EA2E43F1E802ABE4
:1038D0003AFB04FE3AFB14F41EFB1C0E14FB1C0402
:1038E000C4EA2E443BFB05FE3BFB15F51EFB1C0EFC
:1038F00015FB1C05C5EA2E45F1E802AB3AFB06FEB6
:103900003AFB16F61EFB1C0E16FB1C06C6EA2E46DC
:103910003BFB07FE3BFB17F71EFB1C0E17FB1C07B0
:10392000C7EA2E47F1E802AB3AFB08FE3AFB18F86B
:103930001EFB1C0E18FB1C08C8EA2E483BFB09FEA8
:103940003BFB19F91EFB1C0E19FB1C09C9EA2E4989
:1039500013EE100AC0F80061C0F84071C0F8808111
:10396000C0F8C091C0F84030C0F88040C0F8C050E6
:1039700040F8042B17EE10EAB0EB0E0F7FF4CCAE3C
:10398000BDEC088ABDE8F08F2DE9F04F2DED098AD6
:10399000C0F6015CB1EC0F4A00F1200E0CEE10EA0B
:1039A0000BEE900AD0F82020D0F86030D0F8A0407C
:1039B000D0F8E050D0F82061D0F86071D0F8A08144
:1039C000D0F8E09146F6080014EE10AA3AFB06FE85
:1039D0003AFB16F61EFB1C0E16FB1C06C6EA2E4E04
:1039E000D2FA4EF692FA4EF23AFB07FE3AFB17F77E
:1039F0001EFB1C0E17FB1C07C7EA2E4ED3FA4EF710
:103A000093FA4EF33AFB08FE3AFB18F81EFB1C0E25
:103A100018FB1C08C8EA2E4ED4FA4EF894FA4EF45D
:103A20003AFB09FE3AFB19F91EFB1C0E19FB1C0997
:103A3000C9EA2E4ED5FA4EF995FA4EF514EE90AA33
:103A400015EE10BA3AFB04FE3AFB14F41EFB1C0EF2
:103A500014FB1C04C4EA2E4ED2FA4EF492FA4EF233
:103A60003AFB05FE3AFB15F51EFB1C0E15FB1C056B
:103A7000C5EA2E4ED3FA4EF593FA4EF33BFB08FE01
:103A80003BFB18F81EFB1C0E18FB1C08C8EA2E4E48
:103A9000D6FA4EF896FA4EF63BFB09FE3BFB19F9B7
:103AA0001EFB1C0E19FB1C09C9EA2E4ED7FA4EF953
:103AB00097FA4EF715EE90AA16EE10BA3AFB03FEEF
:103AC0003AFB13F31EFB1C0E13FB1C03C3EA2E4E22
:103AD000D2FA4EF392FA4EF23BFB05FE3BFB15F594
:103AE0001EFB1C0E15FB1C05C5EA2E4ED4FA4EF526
:103AF00094FA4EF416EE90AA17EE10BA3AFB07FEAF
:103B00003AFB17F71EFB1C0E17FB1C07C7EA2E4ECD
:103B1000D6FA4EF796FA4EF63BFB09FE3BFB19F937
:103B20001EFB1C0E19FB1C09C9EA2E4ED8FA4EF9D1
:103B300098FA4EF817EE90AA18EE10BA3AFB02FE69
:103B40003AFB12F21EFB1C0E12FB1C02C2EA2E42B2
:103B50003BFB03FE3BFB13F31EFB1C0E13FB1C0382
:103B6000C3EA2E4318EE90AA19EE10BA3AFB04FEEF
:103B70003AFB14F41EFB1C0E14FB1C04C4EA2E4476
:103B80003BFB05FE3BFB15F51EFB1C0E15FB1C0548
:103B9000C5EA2E4519EE90AA1AEE10BA3AFB06FEB7
:103BA0003AFB16F61EFB1C0E16FB1C06C6EA2E463A
:103BB0003BFB07FE3BFB17F71EFB1C0E17FB1C070E
:103BC000C7EA2E471AEE90AA1BEE10BA3AFB08FE7F
:103BD0003AFB18F81EFB1C0E18FB1C08C8EA2E48FE
:103BE0003BFB09FE3BFB19F91EFB1C0E19FB1C09D4
:103BF000C9EA2E4900EE102A00EE903A01EE104A72
:103C000001EE905A02EE106A02EE907A03EE108AEC
:103C100003EE909A1BEE900AD0F80020D0F84030C6
:103C2000D0F88040D0F8C050D0F80061D0F8407192
:103C3000D0F88081D0F8C09146F6080014EE10AAA2
:103C40003AFB06FE3AFB16F61EFB1C0E16FB1C0684
:103C5000C6EA2E4ED2FA4EF692FA4EF23AFB07FE22
:103C60003AFB17F71EFB1C0E17FB1C07C7EA2E4E6C
:103C7000D3FA4EF793FA4EF33AFB08FE3AFB18F8E4
:103C80001EFB1C0E18FB1C08C8EA2E4ED4FA4EF878
:103C900094FA4EF43AFB09FE3AFB19F91EFB1C0E8E
:103CA00019FB1C09C9EA2E4ED5FA4EF995FA4EF5C4
:103CB00014EE90AA15EE10BA3AFB04FE3AFB14F487
:103CC0001EFB1C0E14FB1C04C4EA2E4ED2FA4EF44A
:103CD00092FA4EF23AFB05FE3AFB15F51EFB1C0E5E
:103CE00015FB1C05C5EA2E4ED3FA4EF593FA4EF39A
:103CF0003BFB08FE3BFB18F81EFB1C0E18FB1C08C8
:103D0000C8EA2E4ED6FA4EF896FA4EF63BFB09FE5E
:103D10003BFB19F91EFB1C0E19FB1C09C9EA2E4EB0
:103D2000D7FA4EF997FA4EF715EE90AA16EE10BA9A
:103D30003AFB03FE3AFB13F31EFB1C0E13FB1C03A2
:103D4000C3EA2E4ED2FA4EF392FA4EF23BFB05FE38
:103D50003BFB15F51EFB1C0E15FB1C05C5EA2E4E84
:103D6000D4FA4EF594FA4EF416EE90AA17EE10BA65
:103D70003AFB07FE3AFB17F71EFB1C0E17FB1C074E
:103D8000C7EA2E4ED6FA4EF796FA4EF63BFB09FEE0
:103D90003BFB19F91EFB1C0E19FB1C09C9EA2E4E30
:103DA000D8FA4EF998FA4EF81BEE900A10EE90AA47
:103DB00093FA4AFED3FA4AF3C0F840E0C0F8603004
:103DC00011EE90AA95FA4AFED5FA4AF5C0F8C0E07D
:103DD000C0F8E05012EE90AA97FA4AFED7FA4AF7D6
:103DE000C0F840E1C0F8607113EE90AA99FA4AFE5B
:103DF000D9FA4AF9C0F8C0E1C0F8E09111EE105AC2
:103E000094FA45FED4FA45FAC0F880E0C0F8A0A0C4
:103E100012EE107A96FA47FED6FA47FAC0F800E199
:103E2000C0F820A113EE109A98FA49FED8FA49FA80
:103E3000C0F880E1C0F8A0A110EE103A92FA43FE5B
:103E4000D2FA43FAC0F820A040F804EB1CEE10EAC6
:103E5000B0EB0E0F7FF4A4ADA0F1200000F5007EC2
:103E600006EE90EA0BEE900AD0F80020D0F804306D
:103E7000D0F80840D0F80C50D0F81060D0F814708A
:103E8000D0F81880D0F81C9046F6080051F804AB22
:103E90003AFB06FE3AFB16F61EFB1C0E16FB1C0632
:103EA000C6EA2E4ED2FA4EF692FA4EF23AFB07FED0
:103EB0003AFB17F71EFB1C0E17FB1C07C7EA2E4E1A
:103EC000D3FA4EF793FA4EF33AFB08FE3AFB18F892
:103ED0001EFB1C0E18FB1C08C8EA2E4ED4FA4EF826
:103EE00094FA4EF43AFB09FE3AFB19F91EFB1C0E3C
:103EF00019FB1C09C9EA2E4ED5FA4EF995FA4EF572
:103F0000F1E802AB3AFB04FE3AFB14F41EFB1C0E74
:103F100014FB1C04C4EA2E4ED2FA4EF492FA4EF26E
:103F20003AFB05FE3AFB15F51EFB1C0E15FB1C05A6
:103F3000C5EA2E4ED3FA4EF593FA4EF33BFB08FE3C
:103F40003BFB18F81EFB1C0E18FB1C08C8EA2E4E83
:103F5000D6FA4EF896FA4EF63BFB09FE3BFB19F9F2
:103F60001EFB1C0E19FB1C09C9EA2E4ED7FA4EF98E
:103F700097FA4EF7F1E802AB3AFB03FE3AFB13F374
:103F80001EFB1C0E13FB1C03C3EA2E4ED2FA4EF38B
:103F900092FA4EF23BFB05FE3BFB15F51EFB1C0E99
:103FA00015FB1C05C5EA2E4ED4FA4EF594FA4EF4D4
:103FB000F1E802AB3AFB07FE3AFB17F71EFB1C0EBB
:103FC00017FB1C07C7EA2E4ED6FA4EF796FA4EF6A6
:103FD0003BFB09FE3BFB19F91EFB1C0E19FB1C09E0
:103FE000C9EA2E4ED8FA4EF998FA4EF81BEE900A0E
:103FF000C0F81060C0F81470C0F81880C0F81C90A9
:10400000C0F80430C0F80840C0F80C5040F8202B2D
:1040100016EE90EAB0EB0E0F7FF424AFBDEC098AE8
:10402000BDE8F08F2DE9FF4F46F6080B40F6015A28
:104030004FF2013CC6F6A83C40F20009DDF83440DE
:10404000DDF838700DEE107ADDF83C700DEE907AE8
:1040500040F2000E08EE903A33F8025B13F8016B61
:10406000C5F3033747EA0616C5F30B05C6F30B067F
:10407000B5EB0A0F80F04E8022F8025B09F10109CE
:10408000B9F1040F40F04680A2F1080209EE103A9F
:1040900009EE90EA0AEE106A1DEE908A51F8043B90
:1040A000D2F8009054F804EB3EFB13F515FB0AB56B
:1040B000C3EA050548F8045B15FB39F613FB0966EE
:1040C00023FB19F5C0F8045040F8086BCEF1000E40
:1040D00051F8043BD2F804903EFB13F515FB0AB5EA
:1040E000C3EA050548F8045B15FB39F613FB0966BE
:1040F00023FB19F5C0F8045040F8086B0DEE908AC8
:1041000019EE103A19EE90EA1AEE106A0EF1010E4D
:1041100040F20009B6EB0A0F80F04E80BEF1400F6E
:1041200080F24A8022F8026B09F10109B9F1040F0B
:1041300040F04280A2F1080209EE103A09EE90EA3E
:104140001DEE908A51F8043BD2F8009054F804EB2D
:104150003EFB13F515FB0AB5C3EA050548F8045BF9
:1041600015FB39F613FB096623FB19F5C0F804505B
:1041700040F8086BCEF1000E51F8043BD2F80490E1
:104180003EFB13F515FB0AB5C3EA050548F8045BC9
:1041900015FB39F613FB096623FB19F5C0F804502B
:1041A00040F8086B0DEE908A19EE103A19EE90EA7D
:1041B0000EF1010E40F2000918EE907A07F1A807FF
:1041C00003F10308B8EB070F40F32380BEF1400F63
:1041D00080F21F8018EE903A08EE10CA09EE100A1D
:1041E00009EE901A0AEE102A0AEE90EA184640F2FA
:1041F00001011DEE102AFDF78FFE18EE10CA19EE10
:10420000100A19EE901A1AEE102A1AEE90EA18EE19
:10421000903ABEF1400FFFF61FAFBDE8FF8F00BF21
:104220002DE9FF4F46F6080B40F6015A4FF2013CCC
:10423000C6F6A83C40F20009DDF83440DDF83870DD
:104240000DEE107ADDF83C700DEE907A40F2000E23
:1042500008EE903A33F8025B13F8016BC5F30337AD
:1042600047EA0616C5F30B05C6F30B06B5EB0A0FB6
:1042700080F0548022F8025B09F10109B9F1040FC2
:1042800040F04C80A2F1080209EE103A09EE90EAE3
:104290000AEE106A1DEE908A51F8043BD2F80090A5
:1042A000076854F804EB3EFB13F515FB0AB5C3EAA7
:1042B000050548F8045B15FB397513FB095740F8F1
:1042C000047BD0F8007023FB197740F8047BCEF113
:1042D000000E51F8043BD2F8049007683EFB13F53A
:1042E00015FB0AB5C3EA050548F8045B15FB3975EB
:1042F00013FB095740F8047BD0F8007023FB1977B3
:1043000040F8047B0DEE908A19EE103A19EE90EA0F
:104310001AEE106A0EF1010E40F20009B6EB0A0F18
:1043200080F05480BEF1400F80F2508022F8026B82
:1043300009F10109B9F1040F40F04880A2F1080227
:1043400009EE103A09EE90EA1DEE908A51F8043B0E
:10435000D2F80090076854F804EB3EFB13F515FB08
:104360000AB5C3EA050548F8045B15FB397513FB6C
:10437000095740F8047BD0F8007023FB197740F808
:10438000047BCEF1000E51F8043BD2F8049007688C
:104390003EFB13F515FB0AB5C3EA050548F8045BB7
:1043A00015FB397513FB095740F8047BD0F80070F2
:1043B00023FB197740F8047B0DEE908A19EE103A32
:1043C00019EE90EA0EF1010E40F2000918EE907A13
:1043D00007F1A80703F10308B8EB070F40F32380A8
:1043E000BEF1400F80F21F8018EE903A08EE10CA1E
:1043F00009EE100A09EE901A0AEE102A0AEE90EA67
:10440000184640F201011DEE102AFDF785FD18EE59
:1044100010CA19EE100A19EE901A1AEE102A1AEEA6
:1044200090EA18EE903ABEF1400FFFF613AFBDE8E8
:10443000FF8F00BF2DE9FF4F46F6080B40F6015AEB
:104440004FF2013CC6F6A83C40F20009DDF83440CA
:10445000DDF838700DEE107ADDF83C700DEE907AD4
:104460000EEE100A0EEE900ADDF8400040F2000E4B
:1044700008EE903A33F8025B13F8016BC5F303378B
:1044800047EA0616C5F30B05C6F30B06B5EB0A0F94
:1044900080F06A8022F8025B09F10109B9F1040F8A
:1044A00040F06280A2F1080209EE103A09EE90EAAB
:1044B0000AEE106A1DEE908A51F8043BD2F8009083
:1044C00050F8047B54F804EB3EFB13F515FB0AB5DA
:1044D000C3EA050548F8045B15FB397513FB09565B
:1044E00006FB0CF616FB2AB650F8045B23FB1955A5
:1044F00005FB0CF515FB2AB5C5EA26471EEE106A2A
:1045000046F8047BCEF1000E51F8043BD2F804903B
:104510003EFB13F515FB0AB5C3EA050550F8047B0D
:1045200048F8045B15FB397513FB095505FB0CF5C1
:1045300015FB2AB550F8047B23FB197707FB0CF712
:1045400017FB2AB7C7EA254746F8047B0EEE106A28
:104550000DEE908A19EE103A19EE90EA1AEE106AF2
:104560000EF1010E40F20009B6EB0A0F80F06A80EE
:10457000BEF1400F80F2668022F8026B09F101095A
:10458000B9F1040F40F05E80A2F1080209EE103A82
:1045900009EE90EA1DEE908A51F8043BD2F80090A3
:1045A00050F8047B54F804EB3EFB13F515FB0AB5F9
:1045B000C3EA050548F8045B15FB397513FB09567A
:1045C00006FB0CF616FB2AB650F8045B23FB1955C4
:1045D00005FB0CF515FB2AB5C5EA26471EEE106A49
:1045E00046F8047BCEF1000E51F8043BD2F804905B
:1045F0003EFB13F515FB0AB5C3EA050550F8047B2D
:1046000048F8045B15FB397513FB095505FB0CF5E0
:1046100015FB2AB550F8047B23FB197707FB0CF731
:1046200017FB2AB7C7EA254746F8047B0EEE106A47
:104630000DEE908A19EE103A19EE90EA0EF1010E85
:1046400040F2000918EE907A07F1A80703F1030879
:10465000B8EB070F40F32380BEF1400F80F21F80BC
:1046600018EE903A08EE10CA09EE100A09EE901AF8
:104670000AEE102A0AEE90EA184640F201011DEEF9
:10468000102AFDF749FC18EE10CA19EE100A19EEAF
:10469000901A1AEE102A1AEE90EA18EE903ABEF12D
:1046A000400FFFF6E7AE1EEE900ABDE8FF8F00BF99
:1046B0002DE9FF4F46F6080B40F6015A4FF2013C38
:1046C000C6F6A83C40F20009DDF834700DEE107A11
:1046D000DDF838700DEE907A40F2000E08EE903A58
:1046E00033F8025B13F8016BC5F3033747EA06168C
:1046F000C5F30B05C6F30B06B5EB0A0F80F03A8045
:1047000022F8025B09F10109B9F1040F40F032808F
:10471000A2F1080209EE103A09EE90EA0AEE106AD8
:104720001DEE908A51F8043BD2F8009051F8045BDA
:10473000D2F8046058F804EB2EFB09F723FB19F4B8
:1047400040F8047B40F8044B58F8047B27FB06FE36
:1047500025FB16F440F804EB40F8044B0DEE908A6C
:1047600019EE103A19EE90EA1AEE106A0EF1010EE7
:1047700040F20009B6EB0A0F80F03A80BEF1400F1C
:1047800080F2368022F8026B09F10109B9F1040FB9
:1047900040F02E80A2F1080209EE103A09EE90EAEC
:1047A0001DEE908A51F8043BD2F8009051F8045B5A
:1047B000D2F8046058F804EB2EFB09F723FB19F438
:1047C00040F8047B40F8044B58F8047B27FB06FEB6
:1047D00025FB16F440F804EB40F8044B0DEE908AEC
:1047E00019EE103A19EE90EA0EF1010E40F20009AE
:1047F00018EE907A07F1A80703F10308B8EB070F4A
:1048000040F32380BEF1400F80F21F8018EE903AF3
:1048100008EE10CA09EE100A09EE901A0AEE102AE4
:104820000AEE90EA184640F201011DEE102AFDF74B
:1048300073FB18EE10CA19EE100A19EE901A1AEE50
:10484000102A1AEE90EA18EE903ABEF1400FFFF6E9
:1048500047AFBDE8FF8F00BF2DE9FF4F46F6080BBD
:1048600040F6015A4FF2013CC6F6A83C40F200095E
:10487000DDF834700DEE107ADDF838700DEE907AB8
:1048800040F2000E08EE903A33F8025B13F8016B29
:10489000C5F3033747EA0616C5F30B05C6F30B0647
:1048A000B5EB0A0F80F0418022F8025B09F10109A3
:1048B000B9F1040F40F03980A2F1080209EE103A74
:1048C00009EE90EA0AEE106A1DEE908A51F8043B58
:1048D000D2F8009051F8045BD2F80460D0F8007070
:1048E000D0F804E058F8044B24FB097723FB19EEB9
:1048F000C0F804E040F8087B58F8044B0768D0F88B
:1049000004E024FB067725FB16EEC0F804E040F82F
:10491000087B0DEE908A19EE103A19EE90EA1AEE25
:10492000106A0EF1010E40F20009B6EB0A0F80F09A
:104930004180BEF1400F80F23D8022F8026B09F108
:104940000109B9F1040F40F03580A2F1080209EE27
:10495000103A09EE90EA1DEE908A51F8043BD2F825
:10496000009051F8045BD2F80460D0F80070D0F8E1
:1049700004E058F8044B24FB097723FB19EEC0F838
:1049800004E040F8087B58F8044B0768D0F804E0CE
:1049900024FB067725FB16EEC0F804E040F8087B00
:1049A0000DEE908A19EE103A19EE90EA0EF1010E12
:1049B00040F2000918EE907A07F1A80703F1030806
:1049C000B8EB070F40F32380BEF1400F80F21F8049
:1049D00018EE903A08EE10CA09EE100A09EE901A85
:1049E0000AEE102A0AEE90EA184640F201011DEE86
:1049F000102AFDF791FA18EE10CA19EE100A19EEF6
:104A0000901A1AEE102A1AEE90EA18EE903ABEF1B9
:104A1000400FFFF639AFBDE8FF8F00BF2DE9FF4F14
:104A200046F6080B40F6015A4FF2013CC6F6A83C88
:104A300040F20009DDF834700DEE107ADDF83870C0
:104A40000DEE907A0EEE100A0EEE900ADDF83C00A4
:104A500040F2000E08EE903A33F8025B13F8016B57
:104A6000C5F3033747EA0616C5F30B05C6F30B0675
:104A7000B5EB0A0F80F0568022F8025B09F10109BC
:104A8000B9F1040F40F04E80A2F1080209EE103A8D
:104A900009EE90EA0AEE106A1DEE908A51F8043B86
:104AA000D2F8009051F8045BD2F80460D0F804E02A
:104AB00050F8087B58F8044B24FB097707FB0CF7E8
:104AC00017FB2AB723FB19EE0EFB0CFE1EFB2ABEBA
:104AD000CEEA27471EEE103A43F8047B58F8044B01
:104AE000D0F804E050F8087B24FB067707FB0CF7AE
:104AF00017FB2AB725FB16EE0EFB0CFE1EFB2ABE8B
:104B0000CEEA274743F8047B0EEE103A0DEE908A6A
:104B100019EE103A19EE90EA1AEE106A0EF1010E33
:104B200040F20009B6EB0A0F80F05680BEF1400F4C
:104B300080F2528022F8026B09F10109B9F1040FE9
:104B400040F04A80A2F1080209EE103A09EE90EA1C
:104B50001DEE908A51F8043BD2F8009051F8045BA6
:104B6000D2F80460D0F804E050F8087B58F8044B01
:104B700024FB097707FB0CF717FB2AB723FB19EE79
:104B80000EFB0CFE1EFB2ABECEEA27471EEE103A95
:104B900043F8047B58F8044BD0F804E050F8087B45
:104BA00024FB067707FB0CF717FB2AB725FB16EE4D
:104BB0000EFB0CFE1EFB2ABECEEA274743F8047B01
:104BC0000EEE103A0DEE908A19EE103A19EE90EAB8
:104BD0000EF1010E40F2000918EE907A07F1A807D5
:104BE00003F10308B8EB070F40F32380BEF1400F39
:104BF00080F21F8018EE903A08EE10CA09EE100AF3
:104C000009EE901A0AEE102A0AEE90EA184640F2CF
:104C100001011DEE102AFDF77FF918EE10CA19EEFA
:104C2000100A19EE901A1AEE102A1AEE90EA18EEEF
:104C3000903ABEF1400FFFF60FAF1EEE900ABDE8AE
:104C4000FF8F00BF2DE9F04F46F6080AC0F6015964
:104C50004FF2013BC6F6A83B00F5806E53F804CB3B
:104C600092F80260B2F8037092F8058032F8064BB1
:104C7000C4F30335C4F30B0445EA061544EA0544BE
:104C8000C7F30335C7F30B0645EA081546EA0545A1
:104C900051F8046B51F8047B3CFB14F818FB19A87D
:104CA00016FB38F816FB048840F8048B26FB14F832
:104CB00040F8048BCCF1000C3CFB15F818FB19A84C
:104CC00017FB38F817FB058840F8048B27FB15F80D
:104CD00040F8048BB0EB0E0F7FF4C0AFBDE8F08F4F
:104CE0002DE9F04F46F6080AC0F601594FF2013B94
:104CF000C6F6A83B00F5806E53F804CB92F802602C
:104D0000B2F8037092F8058032F8064BC4F303350D
:104D1000C4F30B0445EA061544EA0544C7F303351A
:104D2000C7F30B0645EA081546EA054551F8048B1A
:104D300006683CFB14F717FB19A718FB376718FB2D
:104D4000047740F8047B066828FB146740F8047B6E
:104D5000CCF1000C51F8048B06683CFB15F717FBEF
:104D600019A718FB376718FB057740F8047B06681E
:104D700028FB156740F8047BB0EB0E0F7FF4BCAF47
:104D8000BDE8F08F2DE9F04F46F6080AC0F601594C
:104D90004FF2013BC6F6A83BDDF8246000EE906AB6
:104DA00006F5806E53F804CB92F80260B2F80370F7
:104DB00092F8058032F8064BC4F30335C4F30B04B4
:104DC00045EA061544EA0544C7F30335C7F30B0665
:104DD00045EA081546EA054501EE103A10EE903A0C
:104DE00051F8048B53F8046B3CFB14F717FB19A71D
:104DF00018FB376718FB047707FB0BF717FB39A77E
:104E000053F8046B28FB146606FB0BF616FB39A659
:104E1000C6EA274640F8046BCCF1000C51F8048B2D
:104E200053F8046B3CFB15F717FB19A718FB376702
:104E300018FB057707FB0BF717FB39A753F8046B33
:104E400028FB156606FB0BF616FB39A6C6EA2746B5
:104E500040F8046B00EE903AB3EB0E0F11EE103AEF
:104E60007FF4A0AFBDE8F08F2DE9F04F44F6BF6AA4
:104E700040F6015B40F2100990E8FE0111FB0AFCCC
:104E800011FB2AFE4FEAAC6C4FEAAE6E1CFB0BFC2A
:104E90001EFB0BFECCEA0E4CD1FA4CF112FB0AFCC5
:104EA00012FB2AFE4FEAAC6C4FEAAE6E1CFB0BFC09
:104EB0001EFB0BFECCEA0E4CD2FA4CF213FB0AFCA2
:104EC00013FB2AFE4FEAAC6C4FEAAE6E1CFB0BFCE8
:104ED0001EFB0BFECCEA0E4CD3FA4CF314FB0AFC7F
:104EE00014FB2AFE4FEAAC6C4FEAAE6E1CFB0BFCC7
:104EF0001EFB0BFECCEA0E4CD4FA4CF415FB0AFC5C
:104F000015FB2AFE4FEAAC6C4FEAAE6E1CFB0BFCA5
:104F10001EFB0BFECCEA0E4CD5FA4CF516FB0AFC38
:104F200016FB2AFE4FEAAC6C4FEAAE6E1CFB0BFC84
:104F30001EFB0BFECCEA0E4CD6FA4CF617FB0AFC15
:104F400017FB2AFE4FEAAC6C4FEAAE6E1CFB0BFC63
:104F50001EFB0BFECCEA0E4CD7FA4CF718FB0AFCF2
:104F600018FB2AFE4FEAAC6C4FEAAE6E1CFB0BFC42
:104F70001EFB0BFECCEA0E4CD8FA4CF8A0E8FE0162
:104F8000B9F101097FF478AFBDE8F08F2DE9F04F5A
:104F900046F6080CC0F6015B44F6AC7AC9F2F47A26
:104FA00040F2100990E8FE013AFB01FE3AFB11F1D4
:104FB0001EFB1BCE11FB1BC1C1EA2E413AFB02FEB8
:104FC0003AFB12F21EFB1BCE12FB1BC2C2EA2E42A0
:104FD0003AFB03FE3AFB13F31EFB1BCE13FB1BC372
:104FE000C3EA2E433AFB04FE3AFB14F41EFB1BCE2D
:104FF00014FB1BC4C4EA2E443AFB05FE3AFB15F52C
:105000001EFB1BCE15FB1BC5C5EA2E453AFB06FE53
:105010003AFB16F61EFB1BCE16FB1BC6C6EA2E4637
:105020003AFB07FE3AFB17F71EFB1BCE17FB1BC70D
:10503000C7EA2E473AFB08FE3AFB18F81EFB1BCEC8
:1050400018FB1BC8C8EA2E48A0E8FE01B9F1010907
:105050007FF4A8AFBDE8F08F000000000000000062
:105060000000000000000000000000000000000040
:105070000000000000000000000000000000000030
:105080000000000000000000000000000000000020
:105090000000000000000000000000000000000010
:1050A0000000000000000000000000000000000000
:1050B00000000000000000000000000000000000F0
:1050C00000000000000000000000000000000000E0
:1050D00000000000000000000000000000000000D0
:1050E00000000000000000000000000000000000C0
:1050F00000000000000000000000000000000000B0
:10510000704700BFAFF30080AFF30080AFF30080C3
:10511000AFF30080AFF30080AFF30080AFF3008007
:10512000AFF30080AFF30080AFF30080AFF30080F7
:10513000AFF30080AFF30080AFF30080AFF30080E7
:10514000000000000000000000000000000000005F
:10515000000000000000000000000000000000004F
:10516000000000000000000000000000000000003F
:10517000000000000000000000000000000000002F
:10518000000000000000000000000000000000001F
:10519000000000000000000000000000000000000F
:1051A00000000000000000000000000000000000FF
:1051B00000000000000000000000000000000000EF
:1051C00000000000000000000000000000000000DF
:1051D00000000000000000000000000000000000CF
:1051E00000000000000000000000000000000000BF
:1051F00000000000000000000000000000000000AF
:1052000003B32DE9F04122F00704001912F0070260
:105210000BD01C00C2F10805AC4200DD2C00A3EB52
:105220000408230000F0ECF84346DA0804D098465E
:1052300000F066F808F0070313B1002200F0E0F870
:10524000BDE8F081704700BFAFF30080AFF300808E
:10525000AFF30080AFF30080AFF30080AFF30080C6
:10526000AFF30080AFF30080AFF30080AFF30080B6
:10527000AFF30080AFF30080AFF30080AFF30080A6
:10528000000000000000000000000000000000001E
:10529000000000000000000000000000000000000E
:1052A00000000000000000000000000000000000FE
:1052B00000000000000000000000000000000000EE
:1052C00000000000000000000000000000000000DE
:1052D00000000000000000000000000000000000CE
:1052E00000000000000000000000000000000000BE
:1052F00000000000000000000000000000000000AE
:1053000051F8044B51F8045BD0E9006704F05533C1
:1053100043EA530303F0333343EA930303F00F33B9
:1053200043EA131303F0FF1363F30F2386EA1326F4
:1053300005F0553343EA530303F0333343EA930351
:1053400003F00F3343EA131303F0FF1343EA13236D
:1053500086EA034604F0AA3343EA430303F0CC335E
:1053600043EA830303F0F03343EA031303F0FF231C
:1053700043EA032387EA134705F0AA3343EA4303CA
:1053800003F0CC3343EA830303F0F03343EA03131F
:1053900003F0FF2343EA03236FF30F035F40E0E8CA
:1053A0000267013AACD17047AFF30080AFF30080E1
:1053B000AFF30080AFF30080AFF30080AFF3008065
:1053C00000000000000000000000000000000000DD
:1053D00000000000000000000000000000000000CD
:1053E00000000000000000000000000000000000BD
:1053F00000000000000000000000000000000000AD
:105400000024002530B46A4411F8015B02F8015B06
:10541000013BF9D130BCD0E9006704F0553343EAD1
:10542000530303F0333343EA930303F00F3343EAA8
:10543000131303F0FF1363F30F2386EA132605F01B
:10544000553343EA530303F0333343EA930303F042
:105450000F3343EA131303F0FF1343EA132386EADF
:10546000034604F0AA3343EA430303F0CC3343EA90
:10547000830303F0F03343EA031303F0FF2343EA0B
:10548000032387EA134705F0AA3343EA430303F0F3
:10549000CC3343EA830303F0F03343EA031303F00E
:1054A000FF2343EA03236FF30F035F40E0E8026743
:1054B000704700BFAFF30080AFF30080AFF3008010
:1054C00000000000000000000000000000000000DC
:1054D00000000000000000000000000000000000CC
:1054E00000000000000000000000000000000000BC
:1054F00000000000000000000000000000000000AC
:1055000003B32DE9F04122F00704001912F007025D
:105510000BD01C00C2F10805AC4200DD2C00A3EB4F
:105520000408230000F0ECF84346DA0804D098465B
:1055300000F066F808F0070313B1002200F0E0F86D
:10554000BDE8F081704700BFAFF30080AFF300808B
:10555000AFF30080AFF30080AFF30080AFF30080C3
:10556000AFF30080AFF30080AFF30080AFF30080B3
:10557000AFF30080AFF30080AFF30080AFF30080A3
:10558000000000000000000000000000000000001B
:10559000000000000000000000000000000000000B
:1055A00000000000000000000000000000000000FB
:1055B00000000000000000000000000000000000EB
:1055C00000000000000000000000000000000000DB
:1055D00000000000000000000000000000000000CB
:1055E00000000000000000000000000000000000BB
:1055F00000000000000000000000000000000000AB
:10560000F0E80245230065F31F446FF30F0545EAF8
:10561000134584EA142303F47F435C4084EA0324A3
:1056200084EA141303F0F0135C4084EA031484EA60
:10563000940303F00C335C4084EA830484EA54034B
:1056400003F022335C4084EA430485EA152303F423
:105650007F435D4085EA032585EA151303F0F013C7
:105660005D4085EA031585EA950303F00C335D4040
:1056700085EA830585EA550303F022335D4085EA18
:10568000430541F8044B013A41F8045BB8D1704737
:10569000AFF30080AFF30080AFF30080AFF3008082
:1056A000AFF30080AFF30080AFF30080AFF3008072
:1056B000AFF30080AFF30080AFF30080AFF3008062
:1056C00000000000000000000000000000000000DA
:1056D00000000000000000000000000000000000CA
:1056E00000000000000000000000000000000000BA
:1056F00000000000000000000000000000000000AA
:10570000F0E80245260065F31F446FF30F0545EAF4
:10571000164584EA142606F47F46744084EA06247B
:1057200084EA141606F0F016744084EA061484EA3B
:10573000940606F00C36744084EA860484EA540623
:1057400006F02236744084EA460485EA152606F4FB
:105750007F46754085EA062585EA151606F0F0169F
:10576000754085EA061585EA950606F00C36754003
:1057700085EA860585EA550606F02236754085EAF3
:10578000460530B46A4412F8014B013B01F8014B65
:10579000F9D102B0704700BFAFF30080AFF30080D3
:1057A000AFF30080AFF30080AFF30080AFF3008071
:1057B000AFF30080AFF30080AFF30080AFF3008061
:1057C00000000000000000000000000000000000D9
:1057D00000000000000000000000000000000000C9
:1057E00000000000000000000000000000000000B9
:1057F00000000000000000000000000000000000A9
:10580000010000000000000000000000890000000E
:10581000000000008B0000800000000080800080FD
:10582000010000008B00000001000000008000006B
:1058300001000000888000800100000082000080DC
:10584000000000000B000000000000000A00000043
:1058500001000000828000000000000003800000C2
:10586000010000008B800000010000000B000080A0
:10587000010000008A00008001000000810000801B
:10588000000000008100008000000000080000808F
:105890000000000083000000000000000380008082
:1058A0000100000088800080000000008800008067
:1058B00001000000008000000000000082800080E5
:1058C000FF000000AFF30080AFF30080AFF3008073
:1058D000AFF30080AFF30080AFF30080AFF3008040
:1058E000AFF30080AFF30080AFF30080AFF3008030
:1058F000AFF30080AFF30080AFF30080AFF3008020
:10590000AFF204112DE9F05F86B00591D0F8203098
:10591000D0F84810D0F87050D0F898B0D0F8C0C087
:1059200083EA010383EA050383EA0B0383EA0C039A
:10593000D0F80C70D0F83410D0F85C50D0F884B0A7
:10594000D0F8ACC087EA010787EA050787EA0B07AA
:1059500087EA0C0783EAF776D0F81440D0F83C10B9
:10596000D0F86450D0F88CB0D0F8B4C0CDF8006056
:1059700084EA010484EA050484EA0B0484EA0C0442
:1059800083EA0406D0F81830D0F84010D0F86850F8
:10599000D0F890B0D0F8B8C0CDF80C6083EA01031D
:1059A00083EA050383EA0B0383EA0C0387EA030215
:1059B000D0F80070D0F82810D0F85050D0F878B057
:1059C000D0F8A0C087EA010787EA050787EA0B0736
:1059D00087EA0C0787EAF47AD0F81C40D0F8441024
:1059E000D0F86C50D0F894B0D0F8BCC084EA010470
:1059F00084EA050484EA0B0484EA0C0484EA070EB2
:105A0000D0F80870D0F83010D0F85850D0F880B0E6
:105A1000D0F8A8C087EA010787EA050787EA0B07DD
:105A200087EA0C0787EAF476D0F82440D0F84C10C7
:105A3000D0F87450D0F89CB0D0F8C4C0CDF8106045
:105A400084EA010484EA050484EA0B0484EA0C0471
:105A500084EA0708D0F81070D0F83810D0F86050F9
:105A6000D0F888B0D0F8B0C0CDF8048087EA01073C
:105A700087EA050787EA0B0787EA0C0787EAF479C4
:105A8000D0F80440D0F82C10D0F85450D0F87CB0A6
:105A9000D0F8A4C0CDF8089084EA010484EA050493
:105AA00084EA0B0484EA0C0484EA070B83EAF47C9E
:105AB000D0F81830D0F84840D0F85450D0F884606E
:105AC000D0F8B470C0F8541089EA03038CEA0404D7
:105AD00088EA05058BEA060682EA070725EA3461AB
